:020000040800F2
:10000000780F0020ED010008E9120008190F000820
:10001000510F000861030008DF1E00080000000007
:10002000000000000000000000000000D3150008E0
:10003000EF0C0008000000008F130008AF18000844
:10004000070200080702000807020008070200086C
:10005000070200080702000807020008070200085C
:10006000070200080702000807020008070200084C
:10007000070200080702000807020008450A0008F6
:10008000070200080702000807020008070200082C
:10009000070200080702000807020008070200081C
:1000A000070200080702000807020008070200080C
:1000B0001D190008070200089D1900080702000822
:1000C00007020008070200080702000807020008EC
:1000D000070200080702000807020008491B000881
:1000E00007020008070200080702000800000000DD
:1000F0000000000000000000000000000000000000
:1001000000000000000000000702000807020008CD
:10011000070200080702000807020008070200089B
:10012000070200080702000807020008070200088B
:10013000070200080702000807020008070200087B
:1001400071040008070200080702000807020008FF
:1001500000F002F800F03AF80AA090E8000C82449F
:100160008344AAF10107DA4501D100F02FF8AFF27C
:10017000090EBAE80F0013F0010F18BFFB1A43F085
:1001800001031847A42C0000C42C0000103A24BF1F
:1001900078C878C1FAD8520724BF30C830C144BFEC
:1001A00004680C607047000000230024002500262E
:1001B000103A28BF78C1FBD8520728BF30C148BFCA
:1001C0000B6070471FB51FBD10B510BD00F098F84B
:1001D0001146FFF7F7FF01F037FF00F0B6F803B460
:1001E000FFF7F2FF03BC01F009FF00000948804758
:1001F00009480047FEE7FEE7FEE7FEE7FEE7FEE709
:10020000FEE7FEE7FEE7FEE704480549054A064B20
:1002100070470000B118000851010008780900205B
:10022000780F0020780B0020780B00207047401ECC
:10023000CAB210F8011F8A4202D00029F9D1002069
:10024000704730B505460B462A4613F8014B12F8A5
:10025000010B08B1A042F8D01CB1002802D06D1CDF
:10026000F1E7284630BD4FF000020429C0F01280AB
:1002700010F0030C00F01F80CCF1040CBCF1020F55
:1002800018BF00F8012BA8BF20F8022BA1EB0C012E
:1002900000F011B85FEAC17C24BF00F8012B00F820
:1002A000012B48BF00F8012B70477047704770471B
:1002B00070474FF0000200B5134694469646203929
:1002C00022BFA0E80C50A0E80C50B1F12001BFF40F
:1002D000F7AF090728BFA0E80C5048BF0CC05DF875
:1002E00004EB890028BF40F8042B08BF704748BFC3
:1002F00020F8022B11F0804F18BF00F8012B704737
:10030000754600F029F8AE4605006946534620F0D0
:100310000700854618B020B5FFF776FFBDE82040FE
:100320004FF000064FF000074FF000084FF0000BB1
:1003300021F00701AC46ACE8C009ACE8C009ACE864
:10034000C009ACE8C0098D4670470446AFF3008091
:100350002046FFF744FF00000048704718090020BE
:1003600000BFFEE72DE9F0418AB004460D4616466F
:100370001F46DDF840800121092001F039F80121F4
:100380004FF0C06001F014F80121364800F072FD12
:100390002020ADF8240003208DF8260048208DF899
:1003A000270009A9304800F0D1FC4020ADF8240016
:1003B00018208DF8270003208DF8260009A92A4867
:1003C00000F0C4FC00208DF81E008DF81F008DF891
:1003D000200001208DF8210000208DF822008DF8EA
:1003E00023008DF81A808DF81B408DF81C608DF865
:1003F0001D50ADF8187006A91C4800F0D4F80E2066
:100400008DF8120000208DF8130001208DF81400E3
:100410000020ADF80800ADF80A00ADF80C00ADF80A
:100420000E00ADF8100001208DF8150002A800F0B4
:100430002DF8012202210D4800F0ACF840208DF883
:10044000040001208DF8050000208DF80600012031
:100450008DF8070001A800F049FF00200AB0BDE8B0
:10046000F081000040002000000C014000680040C6
:1004700000B585B06A460021034800F057F9684688
:1004800000F01CF905B000BD0068004010B5002167
:10049000837A012202FA03F13D4A126842F0010216
:1004A0003B4B1A603A4A1C3212688A43384B1C3361
:1004B0001A60027BCAB9364A0C3212688A43344B3E
:1004C0000C331A604288C38842EA0343304A403200
:1004D000847A42F834300288838842EA03432C4A03
:1004E0004032847A02EBC4025360027B012A19D1A4
:1004F000274A0C3212680A43254B0C331A60428893
:10050000038842EA0343224A4032847A42F8343074
:10051000C288838842EA03431D4A4032847A02EB50
:10052000C4025360C27A3AB9194A121D12688A434A
:10053000174B1B1D1A6006E0154A121D12680A436C
:10054000134B1B1D1A60028932B9114A143212680A
:100550008A430F4B14331A600289012A06D10C4AD0
:10056000143212680A430A4B14331A60427B012A80
:1005700006D1074A1C3212680A43054B1C331A6025
:10058000034A126822F00102014B1A6010BD0000FC
:10059000006600401AB143690B43436102E04369BE
:1005A0008B434361704730B5024600200023146836
:1005B00024F002041460146844F00104146000E0A4
:1005C0005B1C546804F001041CB94FF6FF74A3428D
:1005D000F6D1546804F001040CB900206CE08C7969
:1005E000012C04D1146844F08004146003E0146802
:1005F00024F080041460CC79012C04D1146844F0F8
:100600004004146003E0146824F0400414600C7A81
:10061000012C04D1146844F02004146003E0146831
:1006200024F0200414604C7A012C04D1146844F0A6
:100630001004146003E0146824F0100414608C7A31
:10064000012C04D1146844F00804146003E0146819
:1006500024F008041460CC7A012C04D1146844F00E
:100660000404146003E0146824F0040414608C781B
:10067000A407CD7844EA05640D7944EA05444D7930
:1006800044EA05540D886D1E2C43D461146824F08F
:1006900001041460002300E05B1C546804F00104B2
:1006A0001CB14FF6FF74A342F6D1546804F0010464
:1006B0000CB1002000E0012030BD000000210268E4
:1006C000D2090F2A29D2DFE802F0270828091011E1
:1006D000121314151617182826001EE0837B427B80
:1006E00063F31F220E4B1A8017E000BF00BF00BF4C
:1006F00000BF00BF00BF10E000BF0A4A1268521CD2
:10070000084B1A60002103E0425C074B5A54491C15
:100710001429F9D301E000E000BF00BF70470000DA
:1007200006000020240000200401002010B500F580
:10073000D87303EB01131B6803F004031372137ADD
:1007400053B900F5D87303EB01131B6840F2FF7433
:1007500004EA5353136009E000F5D87303EB011367
:100760001B686FF0604404EAD303536000F5D8734C
:1007700003EB01131B6803F00203537200F5D873F7
:1007800003EB01135B6803F00F03937200F5D8735A
:1007900003EB01135B681B0AD37400F5D87303EBFA
:1007A00001139B68D37200F5D87303EB01139B68A8
:1007B0001C0A147300F5D87303EB01139B681C0C1F
:1007C000547300F5D87303EB01139B681B0E9373EE
:1007D00000F5D87303EB0113DB68D37300F5D8730E
:1007E00003EB0113DB681C0A147400F5D87303EBE8
:1007F0000113DB681C0C547400F5D87303EB011370
:10080000DB681B0E937421B9C36843F02003C360F7
:1008100003E0036943F02003036110BD10B50246F5
:100820000020936803F08063B3F1806F00D110E083
:10083000936803F00063B3F1006F01D1012008E079
:10084000936803F08053B3F1805F01D1022000E090
:100850000420042874D002F5C07303EB00131B6856
:1008600003F0010402F5C07303EB00131C600B7A64
:100870007BB94B7A0C8843EA445302F5C07404EB0D
:1008800000142468234302F5C07404EB00142360B1
:1008900010E00B7A4C6843EAC4034C7A234302F518
:1008A000C07404EB00142468234302F5C07404EB05
:1008B000001423608B7A03F00F038B7202F5C07370
:1008C00003EB00135B6823F00F0402F5C07303EB26
:1008D00000135C6002F5C07303EB00135B688C7A55
:1008E000234302F5C07404EB001463608B7B1C0689
:1008F0004B7B44EA03440B7B44EA0323CC7A234337
:1009000002F5C07404EB0014A3608B7C1C064B7CC6
:1009100044EA03440B7C44EA0323CC7B234302F5E3
:10092000C07404EB0014E36002F5C07303EB001322
:100930001B6843F0010402F5C07303EB00131C6055
:1009400010BD000010B50246002321B1012907D0D7
:1009500002290FD109E090681D4C00EA04030BE066
:1009600090681C4C00EA040306E090681A4C00EA08
:10097000040301E0002300BF00BF184C181BA34272
:1009800016D007DC83B16FF08060184470B1022884
:1009900018D111E0B0F5007F10D0114C204448B1BF
:1009A000B0F5003F0ED10BE002230DE000230BE079
:1009B000002309E0002307E0012305E0012303E011
:1009C000012301E0002300BF00BFD8B210BD00002A
:1009D00003000004000300080000031000010008E9
:1009E0000001FFF770B504460D460BE014F8011B3B
:1009F000074801F070FA00BF8021054801F09EF918
:100A00000028F9D02800A5F101018DB2EED170BD0A
:100A10000048004070B504460D460BE014F8011B79
:100A2000074801F058FA00BF8021054801F086F917
:100A30000028F9D02800A5F101018DB2EED170BDDA
:100A40000038014010B54FF4003000F013F90128D0
:100A500005D1400400F012F801200549087005494D
:100A6000054800F0B7FD10210248FFF7FCFB10BD60
:100A70001C000020EA0000200000002000F080514F
:100A800011B10349086001E0024948607047000065
:100A9000040402400000024021B1026842F0010259
:100AA000026004E002684FF6FE731A40026070476D
:100AB00030B58DB004460D460121084600F068FCB3
:100AC000174800F031F81748029003950020049071
:100AD000059406908020079000200890099020201F
:100AE0000A904FF440500B9000200C9002A90C4843
:100AF00000F0DFF801220221094800F0D1F80F20B0
:100B00008DF8040001208DF8050003208DF8060003
:100B100001208DF8070001A800F0E8FB0DB030BD02
:100B2000580002400438014001684FF6FE7211403F
:100B300001600021016041608160C1604B498842D1
:100B400008D14A490839496841F00F01474A083A33
:100B500051608AE045491431884208D14349083937
:100B6000496841F0F001414A083A51607DE03F494F
:100B70002831884208D13D490839496841F47061FB
:100B80003A4A083A516070E038493C31884208D10D
:100B900036490839496841F47041344A083A51608D
:100BA00063E032495031884208D1304908394968F8
:100BB00041F470212D4A083A516056E02B496431C6
:100BC000884208D129490839496841F47001274A07
:100BD000083A516049E025497831884208D12349D3
:100BE0000839496841F07061204A083A51603CE098
:100BF0001F49884206D1011F096841F00F01021FF9
:100C0000116032E01A491431884208D11849091F8D
:100C1000096841F0F001164A121F116025E01449DD
:100C20002831884208D11249091F096841F47061CE
:100C30000F4A121F116018E00D493C31884208D15B
:100C40000B49091F096841F47041094A121F1160DC
:100C50000BE007495031884207D10549091F09684F
:100C600041F47021024A121F1160704708000240CF
:100C70000804024001460020002201F0805313B115
:100C8000054B1A6801E0054B1A6802EA01030BB133
:100C9000012000E0002070470004024000000240F4
:100CA0001AB103680B43036002E003688B430360DF
:100CB000704710B50022026847F6F0739A430C6A39
:100CC0008B6823430C6923434C6923438C6923437A
:100CD000CC6923434C6A23438C6A23431A43026042
:100CE000CB6843600B6883604B68C36010BD70477E
:100CF0007CB5054680200190022001AB002246F21F
:100D000040010090284601F0EDF804460CB1204661
:100D10007CBD06200190022001AB002246F240017A
:100D20000090284601F0DEF804460CB12046EFE7BB
:100D30000F200190022001AB002246F240010090FA
:100D4000284601F0CFF804462046E1E72DE9F041BE
:100D5000024600250026002000230024002791F8E9
:100D600003C00CF00F0591F803C00CF0100CBCF19F
:100D7000000F03D091F802C04CEA050591F800C0BD
:100D8000BCF1000F31D0146800202BE04FF0010CB3
:100D90000CFA00F3B1F800C00CEA03069E4220D121
:100DA00083004FF00F0C0CFA03F7BC4305FA03FC69
:100DB0004CEA040491F803C0BCF1280F06D14FF0AF
:100DC000010C0CFA00FCC2F814C00AE091F803C050
:100DD000BCF1480F05D14FF0010C0CFA00FCC2F831
:100DE00010C0401C0828D1D31460B1F800C0BCF179
:100DF000FF0F34DD546800202EE000F1080C4FF0A6
:100E0000010808FA0CF3B1F800C00CEA03069E4290
:100E100021D183004FF00F0C0CFA03F7BC4305FA05
:100E200003FC4CEA040491F803C0BCF1280F05D17F
:100E300000F1080C08FA0CF8C2F8148091F803C00D
:100E4000BCF1480F07D100F1080C4FF0010808FA77
:100E50000CF8C2F81080401C0828CED35460BDE8BE
:100E6000F0814FF480320A4382618161826182693C
:100E700082697047F0B50A4600230024002100254E
:100E800000F00046B6F1004F02D11D4EF16901E0BD
:100E90001B4E7168C0F3034583B200F44016B6F5EB
:100EA000401F08D121F07061154E766826F07066FB
:100EB000134F7E6012E000F48016B6F5801F06D155
:100EC000032606FA05F4A14341F0706106E0460DE1
:100ED000360103FA06F6B14341F0706122B1460DC6
:100EE000360103FA06F6314300F00046B6F1004F32
:100EF00002D1034EF16101E0014E7160F0BD0000CE
:100F0000000001404161704770B504460D46294616
:100F1000204600F039F870BD00BFFEE708B501219A
:100F2000102000F065FA10208DF803000220ADF8C3
:100F3000000003208DF8020069460448FFF706FF11
:100F400002210248FFF7DEFF08BD0000001001404B
:100F500000BFFEE70246134610E010782A2805D0AD
:100F60001078202802DB10787A2801DDFF207047F6
:100F700010782C2801D1481EC1B2521C0029ECD196
:100F8000D01AC0B2F3E700002DE9F04F85B0044657
:100F9000884692A14046FFF754F90746012138469A
:100FA000FFF7D8FF0546FF2D23D0781904A900F0DC
:100FB00026F982469DF810100A2000F015F9BAFBB8
:100FC000F0F642F21070B6FBF0F0C1B27E2001558F
:100FD0006420B6FBF0F06421B0FBF1F201FB1201DA
:100FE0007F2001556420B6FBF0F100FB11618020E9
:100FF000015503213846FFF7ADFF0546FF2D45D0CB
:10100000781904A900F0FBF806469DF81000801C32
:10101000C1B20A2000F0E8F8B6FBF0F044F8810F06
:101020009DF81000801CC1B20A2000F0DDF8B6FB6C
:10103000F0F100FB116A504601F0A0FD81469DF8D9
:101040001000C0F10500C1B20A2000F0CDF80090F8
:1010500001F094FD8346494601F0A4FD82466149B2
:1010600001F0AAFC052102900A2000F0BDF82168D9
:1010700000FB01FA504601F081FD0190029901F058
:1010800039FC039001F05AFD44F8810904213846E7
:10109000FFF760FF0546FF2D02D0785D84F88500DC
:1010A00005213846FFF756FF0546FF2D45D0781934
:1010B00004A900F0A4F806469DF81000801CC1B2F7
:1010C0000A2000F091F8B6FBF0F044F8860F9DF886
:1010D0001000801CC1B20A2000F086F8B6FBF0F1C7
:1010E00000FB116A504601F049FD81469DF8100051
:1010F000C0F10500C1B20A2000F076F8009001F0BE
:101100003DFD8346494601F04DFD8246354901F0DB
:1011100053FC052102900A2000F066F8216800FBCC
:1011200001FA504601F02AFD0190029901F0E2FB1C
:10113000039001F003FD44F8860906213846FFF7C5
:1011400009FF0546FF2D02D0785D84F88A00092149
:101150003846FFF7FFFE0546FF2D1ED0781904A97B
:1011600000F04DF8064642F21070B6FBF0F0C1B246
:101170007D2001556420B6FBF0F06421B0FBF1F254
:1011800001FB12017C2001556420B6FBF0F100FB4D
:10119000116000F5FA60A4F87A0007213846FFF7DD
:1011A000D9FE0546FF2D16D0781904A900F027F8BE
:1011B000A4F8A4009DF8100003280CDA9DF8100094
:1011C000C0F10300C1B20A2000F00EF8B4F8A41078
:1011D0004843A4F8A40005B0BDE8F08F244750525E
:1011E0004D4300000000704210B50246012000E0AF
:1011F00050430B00A1F10104E1B2F9D110BD2DE97A
:10120000F34F81B007463C4600200090834681465C
:101210000026804628E020782D2802D148F00208D8
:10122000641C20782C2802D020782A2800D11CE0C9
:1012300020782E2803D148F00108641C09E02078AA
:10124000392802DC2078302803DA4FF00009002624
:101250000BE008F0010010B1701CC6B203E009F108
:10126000010000F0FF09641CD5E700BF08F0020090
:1012700000B17F1C00250EE0A9F10100401BC1B2A6
:101280000A20FFF7B1FF795D3039009A00FB012099
:101290000090681CC5B24D45EEDB052E00DD05262D
:1012A0000298067000250EE0701E401BC1B20A2095
:1012B000FFF79AFF09F101012944795C303900FBFD
:1012C00001BB681CC5B2B542EEDB31460A20FFF710
:1012D0008BFF009901FB00BA08F0020008B1CAF1C7
:1012E000000A5046BDE8FE8F7047000070B500212F
:1012F00000230F22C47804B3154C246804F4E0647E
:10130000C4F5E064210AC1F10403CA40447804FA38
:1013100003F184781440214309010E4C0678A1554D
:10132000047804F01F050124AC4005786D11AD0070
:1013300005F1E025C5F8004109E0047804F01F0537
:101340000124AC40044D0678761145F8264070BD66
:101350000CED00E000E400E080E100E00249014320
:10136000024A1160704700000000FA050CED00E031
:1013700033B581B00446042002AB002246F2FF01DF
:101380000090204600F0AEFD054628463EBD704761
:1013900029B1064A52690243044B5A6104E0034AE8
:1013A00052698243014B5A617047000000100240AD
:1013B00029B1064AD2690243044BDA6104E0034AC8
:1013C000D2698243014BDA6170470000001002408D
:1013D00029B1064A12690243044B1A6104E0034A28
:1013E00012698243014B1A617047000000100240ED
:1013F00029B1064A92690243044B9A6104E0034A08
:1014000092698243014B9A617047000000100240CC
:1014100029B1064AD2680243044BDA6004E0034A69
:10142000D2688243014BDA6070470000001002402E
:101430002DE9F04100210022002500230026002490
:1014400000278C46DFF86081D8F8048008F00C0192
:1014500021B1042907D0082959D109E0DFF84C81CE
:10146000C0F8008058E0DFF84481C0F8008053E005
:10147000DFF83481D8F8048008F47012DFF828818E
:10148000D8F8048008F48035920C0D2A01D0921C03
:1014900000E0062235B9DFF8188102FB08F8C0F831
:1014A000008033E0DFF80081D8F82C8008F4803623
:1014B000DFF8F480D8F82C8008F00F0808F1010458
:1014C00046B9DFF8E880B8FBF4F808FB02F8C0F88A
:1014D00000801BE0DFF8D080D8F82C80C8F3031818
:1014E00008F10107DFF8C080D8F82C80C8F3032882
:1014F00008F1020CDFF8B480B8FBF7F808FB0CF831
:10150000B8FBF4F808FB02F8C0F8008004E0DFF84C
:101510009C80C0F8008000BF00BFDFF88C80D8F846
:10152000048008F0F0010909DFF8888018F801301C
:10153000D0F8008028FA03F8C0F80480DFF868804B
:10154000D8F8048008F4E061090ADFF8688018F828
:101550000130D0F8048028FA03F8C0F80880DFF8DA
:101560004880D8F8048008F46051C90ADFF8448044
:1015700018F80130D0F8048028FA03F8C0F80C807D
:10158000DFF82480D8F8048008F44041890BDFF8A4
:10159000288018F80130D0F80C80B8FBF3F8C0F8B8
:1015A0001080BDE8F08100000010024000127A00B7
:1015B00000093D002E0000203E00002010B502462C
:1015C000012000E050430B00A1F10104E1B2F9D188
:1015D00010BD70472DE9F05F81468A460025A84678
:1015E000544654212046FEF722FE0646311B081DB4
:1015F000C11700EB11710911A0EB0111615CCFB2B1
:10160000012515E0781BC1B20A20FFF7D7FF311B77
:1016100001EB050B4FEAEB710BEB11710911ABEB11
:101620000111615C303901FB00801FFA80F86D1CEC
:10163000BD42E7DDA9F800804FF0000848212046B0
:10164000FEF7F5FD0646311B081DC11700EB1171B1
:101650000911A0EB0111615CCFB2012516E0781BE6
:10166000C1B20A20FFF7AAFF0146301B00EB050BB1
:101670004FEAEB700BEB10700011ABEB0010205C2D
:10168000303800FB01801FFA80F86D1CBD42E6DD9A
:10169000A9F802804FF0000850212046FEF7C7FD50
:1016A0000646311B481DC11700EB11710911A0EB53
:1016B0000111615CCFB2012516E0781BC1B20A208E
:1016C000FFF77CFF0146301B00EB050B4FEAEB7088
:1016D0000BEB10700011ABEB0010205C303800FBFE
:1016E00001801FFA80F86D1CBD42E6DDA9F8048078
:1016F0004FF00008BDE8F09F07B554201070BDF80A
:10170000000000125070BDF8000090704820D070AA
:10171000BDF8020000121071BDF802005071502097
:101720009071BDF804000012D071BDF80400107271
:101730000EBD10B500F002F810BD00000CB5002081
:10174000019000903F48006840F480303D490860B7
:1017500000BF3C48006800F4003000900198401C35
:101760000190009818B90198B0F5A06FF1D13548F3
:10177000006800F4003010B10120009001E000206A
:101780000090009801285CD12F48006840F01000BC
:101790002D4908600846006820F0030008600846EC
:1017A000006840F00200086026484068254948600B
:1017B0000846406848600846406840F480604860D9
:1017C0000846C06A214908401E49C8620846C06AE6
:1017D0001F4908431B49C8620846006840F0806002
:1017E000086000BF1748006800F000600028F9D0CA
:1017F0001448406820F47C1012494860084640684C
:1018000040F4E81048600846006840F080700860C6
:1018100000BF0C48006800F000700028F9D00948AB
:10182000406820F00300074948600846406840F0DF
:101830000200486000BF0348406800F00C00082820
:10184000F9D10CBD001002400020024000F0FEFF64
:101850001408010010B501210846FFF7A9FD012178
:10186000880700F0F6F810BD33B581B004460120BA
:1018700002AB002246F260010090204600F032FBED
:10188000054628463EBD042808D14FF0E0210969ED
:1018900041F004014FF0E022116107E04FF0E02138
:1018A000096921F004014FF0E0221161704770478F
:1018B00010B51648006840F0010014490860084659
:1018C00040681349084011494860084600681149BA
:1018D00008400E4908600846006820F4802008602F
:1018E0000846406820F4FE0048600846006820F082
:1018F000A05008604FF47F0088600020C862FFF7A6
:1019000018FF4FF000600449086010BD001002404D
:101910000000FFF0FFFFF6FE08ED00E010B501212A
:10192000880700F0A2F840B10121880700F08EF886
:1019300002480068401C0149086010BD20000020DA
:101940007FB505460C4601210846FFF731FDADF88D
:101950000850ADF804400020ADF80600ADF80A00CC
:1019600001A94FF0804000F09DF801221146900738
:1019700000F08CF80121880700F06BF81C208DF82E
:10198000000001208DF8010003208DF802000120E5
:101990008DF803006846FFF7A9FC7FBD10B5012153
:1019A000084800F062F860B10748008840F4004041
:1019B000054908800121034800F048F8002000F0A4
:1019C00031F810BD000800402C0000207FB505460E
:1019D0000C4601210420FFF7EBFCADF80450ADF8F4
:1019E00000400020ADF80600ADF8020069460C4842
:1019F00000F058F801221146094800F047F81E206F
:101A00008DF80C0001208DF80D0002208DF80E00DD
:101A100001208DF80F0003A8FFF768FC7FBD0000D0
:101A20000008004010B5044644B10021064800F00B
:101A300036F80121044800F00CF803E000210248C8
:101A400000F007F810BD000000080040CA43028201
:101A5000704721B1028842F00102028004E002884E
:101A60004FF6FE731A400280704730B502460020E0
:101A700000230024158A05EA0103958905EA01047B
:101A800013B10CB1012000E0002030BD1AB18389F0
:101A90000B43838102E083898B4383817047818478
:101AA00070470000002202881D4B98420ED01D4B4B
:101AB00098420BD0B0F1804F08D01B4B984205D014
:101AC0001A4B984202D01A4B984204D14FF68F73AA
:101AD0001A404B881A43174B984207D0164B98422E
:101AE00004D04FF6FF431A40CB881A4302808B88FC
:101AF00083850B8803850A4B98420BD0094B98428B
:101B000008D00E4B984205D00D4B984202D00D4B99
:101B1000984201D10B7A038601238382704700002B
:101B2000002C014000340140000400400008004047
:101B3000000C004000100040001400400040014034
:101B4000004401400048014010B540F225511348BF
:101B500000F001F908B3114800F0B8F9C4B2104818
:101B60000088B0F5806F12DA00210E48FFF797FF6A
:101B70000B48008810B90120FFF754FF084801887E
:101B80000088401C064A10800748445405E0044879
:101B9000008840F400400249088010BD0048004021
:101BA0002C000020000800401805002010B586B069
:101BB000044601210820FFF71BFC01218804FFF7E0
:101BC000F7FB294800F06CF84FF48060ADF8100086
:101BD00003208DF8120018208DF8130004A9234863
:101BE000FFF7B4F84FF40060ADF8100004208DF852
:101BF000130004A91D48FFF7A9F800940020ADF8D0
:101C00000400ADF80600ADF80800ADF80C000C209B
:101C1000ADF80A006946144800F0ECF801211248BA
:101C200000F028F8012240F225510F4800F0BDF8DD
:101C300027208DF8140002208DF8150003208DF860
:101C4000160001208DF8170005A8FFF74FFB41F69D
:101C50001F4140F2E730FFF7B9FE00200449088039
:101C6000FFF7E0FE06B010BD00480040000C014048
:101C70002C00002021B1828942F40052828104E0CC
:101C800082894DF6FF731A40828170471AB1838AA8
:101C90000B43838202E0838A8B4383827047000078
:101CA00010B504462048844209D101218803FFF77A
:101CB000AFFB00214FF48040FFF7AAFB32E01B4846
:101CC000844209D101214804FFF782FB00214FF42F
:101CD0000030FFF77DFB25E01548844209D1012142
:101CE0008804FFF775FB00214FF48020FFF770FB9D
:101CF00018E01048844209D10121C804FFF768FBAD
:101D000000214FF40020FFF763FB0BE00A488442F8
:101D100008D101210805FFF75BFB00214FF480107B
:101D2000FFF756FB10BD00000038014000440040A2
:101D300000480040004C0040005000400246002097
:101D4000B1F5007F00D100BF13880B400BB101201B
:101D500000E00020704770B50246002400230025F3
:101D6000002040F66A16B14200D100BFC1F342150F
:101D700001F01F03012606FA03F3012D02D1968913
:101D8000334006E0022D02D1168A334001E0968AE4
:101D900033400C12012606FA04F41688344013B1BD
:101DA0000CB1012000E0002070BDF0B50346002416
:101DB00000260025002040F66A17B94200D100BF76
:101DC0001846C1F3421401F01F06012707FA06F571
:101DD000012C01D10C3004E0022C01D1103000E0C4
:101DE00014301AB107682F43076002E00768AF4359
:101DF0000760F0BD2DE9F04786B005460E46002489
:101E0000A24600BFA1460027B08900B100BF2F46FF
:101E10002C8A4CF6FF700440F08804432C82AC8975
:101E20004EF6F3100440B0883189084371890843A5
:101E30000443AC81AC8A4FF6FF400440B0890443B0
:101E4000AC8201A8FFF7F4FA1F48874202D1DDF8FF
:101E500010A001E0DDF80CA0A88900F4004040B11A
:101E60000AEBCA0000EB0A1031684900B0FBF1F838
:101E700007E00AEBCA0000EB0A1031688900B0FBEA
:101E8000F1F86420B8FBF0F004012009642101FBA3
:101E90001089A88900F4004040B1322000EBC9004D
:101EA000B0FBF1F000F00700044308E0322000EB43
:101EB00009106421B0FBF1F000F00F0004432C8105
:101EC00006B0BDE8F0870000003801400146888870
:101ED000C0F308007047C1F308028280704700BF5A
:101EE000FEE700002DE9F04385B081460E46174617
:101EF00098460C9D09F5C060009008208DF80A00F6
:101F000000208DF808008DF80900012D03D12F2045
:101F10008DF80B0010E0022D03D12B208DF80B0063
:101F20000AE0042D03D123208DF80B0004E04FF0CC
:101F3000FF3005B0BDE8F083F1B28DF80C10310A26
:101F40008DF80D108DF80E70042406E0201F18F88F
:101F500000100DF10B000155641C281DA042F5DC9A
:101F60002C1D04E000210DF10B000155641C082C10
:101F7000F8DB69461D48FEF751FC00201C4908604B
:101F80001C490860FFF766FC28E019480068012832
:101F900024D11948C07A802802D16FF00200C8E726
:101FA0001548017B9DF80C0081420BD11248417B02
:101FB0009DF80D00814205D10F48817B9DF80E00F0
:101FC000814202D06FF00100B3E70B48C07A60286D
:101FD00002D06FF00100ACE70020AAE705480068D6
:101FE000B0F57A7FD1DD6FF00300A2E70068004012
:101FF000240000202000002004010020014600BF32
:102000007047000010B56FF00400FFF73CFC0A4871
:1020100000680A49B0FBF1F00949087008460078E9
:1020200000EB4001C1EBC0104FF6FF7101EAC000A8
:102030000449088010BD00000800002000127A004A
:10204000280000202A00002092B000BF4FF0000AB4
:10205000D34600244FF4A060FFF780F99849102080
:10206000FEF726FD4FF4165000F054F90121954873
:10207000FEF712FD01219448FFF7FCFDFFF7C2FFB8
:10208000FEF74CFF4FF49640FFF790FD002006232B
:10209000082201210090FEF765F947210920FFF78A
:1020A0004FFC03210220FFF7DFFB03210120FFF794
:1020B000DBFB0220FEF71CFE00BF00218348FEF779
:1020C00041FC0128F9D1FEF713FEF8E080480088B2
:1020D00000F4004000287DD07E480068C0437E495F
:1020E000C1F884017D497E48FEF70EFF7C48D0F898
:1020F0008160D0F88690A346B0F8A44000207449CF
:10210000088024208DF82800304600F0F5F88DF87E
:102110002900304600F0FAF88DF82A00304600F029
:10212000EEF88DF82B00304600F0EDF88DF82C001D
:102130002A208DF82D00484600F0DEF88DF82E009C
:10214000484600F0E3F88DF82F00484600F0D7F835
:102150008DF83000484600F0D6F88DF83100232085
:102160008DF83200204600F0C7F88DF83300204685
:1021700000F0CCF88DF83400204600F0C0F88DF85F
:102180003500204600F0BFF88DF8360025208DF888
:1021900037005448008800F0AFF88DF838005148F7
:1021A000008800F0B3F88DF839004E48008800F040
:1021B000A6F88DF83A004B48008800F0A4F88DF896
:1021C0003B0026208DF83C00504600F095F88DF835
:1021D0003D0000E058E0504600F098F88DF83E00D1
:1021E000504600F08CF88DF83F00504600F08BF818
:1021F0008DF8400019210AA8FEF7F4FB19210AA85E
:10220000FEF708FC0BEB040040F23C714843400031
:102210004FF4E15190FBF1F0504482463249498835
:10222000C1EB01118900304A928801FB02F000F0F5
:1022300038FACDE906012C49088800F049FA07462A
:102240008846204600F044FA4FF06632274BCDE92D
:10225000000100F051FA3A464346CDE9020100F090
:102260004BFACDE90401DDE9062300F095F8CDE94C
:10227000080100F0E9F985B229460220FFF778F855
:1022800029460120FFF774F819480078012816D173
:102290000020174908701448016808918088ADF83B
:1022A0002400144ADDE90801FFF726FA0921114844
:1022B000FEF7B0FB0F48002101604160017205E7A5
:1022C000EA00002058000240003801400068004049
:1022D0002C00002084012242000022421805002028
:1022E0004400002006000020000000206626674011
:1022F0001C000020FA0000200146080E704701462D
:10230000C1F3072070470146C8B270470146C1F3C8
:102310000740704710B586B00446012144F204001E
:10232000FFF766F84FF40070ADF8140003208DF845
:10233000160018208DF8170005A91548FEF706FDB0
:102340004FF48060ADF8140004208DF8170005A943
:102350000F48FEF7FBFC4FF4C0610D48FEF781FD0E
:1023600001940020ADF80800ADF80A00ADF80C00AB
:10237000ADF810000C20ADF80E0001A90548FFF7DC
:1023800039FD012240210348FFF780FC06B010BD53
:1023900000080140003801402DE9C04130B4DFF8A9
:1023A000A0C23CEA111418BF3CEA131400F0EC8000
:1023B00081EA03051CEA111444EAD57418BF1CEA2B
:1023C000131500F0C780A4EB05044FF0004545EA63
:1023D000C12145EAC32341EA505143EA525304F173
:1023E0007F74994204F500344FEAC0204FEAC222BC
:1023F00008BF904200F09C804FEA13650FF2401630
:10240000765D4FEA134506FB05F7C7F1807706FBBB
:1024100007F74FEAD737A7FB03687642C8F580383D
:10242000A7FB06CE38BFA8F1010807FB08E64FF06E
:10243000000EA6FB028CE6FB03CEDCF1000CCEF115
:10244000004E38BFAEF1010EA6FB0C584FF000074E
:102450004FF00005E6FB0E87A1FB08C6A0FB07CEE8
:1024600016EB0E0645F10005E1FB076515F1E04EA0
:102470007EBFA4F580345FEA46066D4116F1800701
:1024800045F100054FEA17274FEA066647EA056758
:10249000A6F1DE46B6F1805F4FEA15251FD9384612
:1024A00024F0010C05EBC471BCF1FE6F01EB0C11C3
:1024B00002D8F0BCBDE8008124425CBF01F5801E5B
:1024C0009EEAC47F02D4F0BCBDE80081244238D427
:1024D000F0BCA1F1C041BDE8004100F005BA4FEAEF
:1024E000D22242EA43524FEAD323A7FB02864FEAA5
:1024F000D02040EA415007FB03661EEA0E0F4FEA68
:10250000D12105FB026658BFA6EB0056B6EB00567C
:102510004FEA520E4EEAC37E18EB0E0E56EB530EE8
:10252000BDD518EB02085E417F1C55F10005B6E7EA
:102530004FF480154FF000074FF000064FF00008F1
:10254000ADE7F0BC4FF0000001F1C04101F00041E7
:10255000BDE8008111EA0C1F0CEA131500D00CE055
:1025600013EA0C1F00F025804FF00000F0BC81EA58
:10257000030101F00041BDE80081F0BCBDE800416D
:1025800081EA030100F0B0B9F0BCBDE8004170B5CC
:1025900000F05CF9097EFC3E00F007B881EA030117
:1025A0004FF0000001F00041704781EA030100F0A4
:1025B0009BB9F0BCBDE800414FF0000021497047D5
:1025C000FFFDFBF9F7F5F4F2F0EEEDEBE9E8E6E4F8
:1025D000E3E1E0DEDDDBDAD8D7D5D4D3D1D0CFCD7F
:1025E000CCCBCAC8C7C6C5C4C2C1C0BFBEBDBCBBB8
:1025F000BAB9B8B7B6B5B4B3B2B1B0AFAEADACABB3
:10260000AAA9A8A8A7A6A5A4A3A3A2A1A09F9F9E8C
:102610009D9C9C9B9A99999897979695959493933E
:10262000929191908F8F8E8E8D8C8C8B8B8A8989D5
:102630008888878786858584848383828281818058
:102640000000FF070000F87F4FEA1153A3F58063F5
:10265000D3F11E03A8BFD3F1200C08DB4FF00042DA
:1026600042EAC12252EA505232FA03F0704709425C
:102670000BD4102BC4BF0020704703F5787CBCF14D
:10268000FF3F05D04FF0FF3070474FF0000070471C
:1026900070B500F0DBF800BF49922480002070473D
:1026A000F0E710F0004248BF4042B0FA80F310FA61
:1026B00003F10AD0C3F11D0303F580634FEA4150D3
:1026C00002EB035202EBD12170474FF0000070473C
:1026D000B0FA80F310FA03F10AD0C3F11D0303F539
:1026E00080634FEA41504FEA035202EBD121704719
:1026F0004FF0000070470000DFF848C170B51CEAD9
:10270000111E1EBF1CEA13159EEA0C0F95EA0C0F52
:1027100000F06F8081EA030423EA4C134EEAD47E72
:1027200021EA4C1141F4801143F48013AE44A1FB23
:10273000024CA0FB0365AEF17F7E361955EB0C050C
:10274000A1FB034C4CF10003A0FB021C16EB0C0692
:10275000654153F10003094218BF46F0010613F426
:10276000007F0BD14FEA03314FEA0530340341EAD1
:10277000155140EA16506FF003020AE04FEAC321F8
:102780004FEAC520F40241EA555140EA56506FF035
:10279000020202EB2E4201EB025585EACE710AD00D
:1027A0005FEA440C18BF24F0004450F1000041F1EE
:1027B000000120EAD47040F2FE7C624500D270BD78
:1027C000A84214BF4FF080444FF04044002E08BF91
:1027D0000024BEF1806FA8BFA1F1C041BDE87040E8
:1027E00080F282804FF0000001F1C04101F0004111
:1027F00070479EEA0C0F0CEA131518BF95EA0C0FF0
:1028000006D04FF0000081EA030E0EF0004170BDCB
:1028100000F01CF88900013E00F007B800F009B88C
:102820004FEA430C5FEA5C5C08D081EA030100F0E8
:102830005BB84FEA410C5FEA5C5CF6D14FF00000F8
:10284000014970470000FF070000F87F0EF1020EFB
:102850002EF0030E5EF8046B364205D4012A43EBDA
:10286000030515F5001F12D8012841EB010C1CF5DA
:10287000001F0CD80ED14FEAD17C15F5001F0CEBD0
:102880004C0C0CF1020C08BF4CEBD37C04E04FF075
:10289000080C01E04FEAD37C0CEB4C0526FA05F658
:1028A00006F00706B6F1040C06D20EEB860CBDE866
:1028B00070404CF0010C6047DFE80CF0090B02029D
:1028C0004FF000414FF00000A1F5002170BD194606
:1028D0001046012851EB010418BFD4F5001484BF41
:1028E000002001F0004170BD0808A0F500114FEA7A
:1028F0003101704790EA010F48BF81F0004100F1BB
:102900002482421A3CBF801A89184FEAD0524FF0F5
:102910007F4C1CEA410FA2EBD15318BF9CEA026F17
:1029200000F03B804FF0004C4CEA00204CEA0121C3
:1029300021FA03FC10EB0C0C1ED202F1FF325FEA0D
:102940001C2040EBC25038BF70471CF07F0F4FEA8D
:10295000400C18BFBCF17F4F38BF7047C3F1200354
:10296000994008BF20F00100BCF17F4F38BF70478D
:10297000A0F1C04000F0DDB94FEA3C00000A40EB96
:10298000C25028BF1CF0FF0F4FEA400CE6D018BF22
:10299000BCF17F4F38BF7047EAE79CEA026F05D071
:1029A00010EA5C0F08BF00F00040704710B500F05F
:1029B0007AF900BF64FBBE3E4FF47F0C1CEAD012D4
:1029C0001EBF1CEAD11392EA0C0F93EA0C0F00F021
:1029D000858090EA010F48BF42F4807240F4000CF9
:1029E00041F400002CF07F4120F07F4000B581428F
:1029F000A2EB03020FF2081CACEB504EC0F100003A
:102A00009EF800E04FEA4E0E00FB0EFC38BF490076
:102A10004FEA2C1C02F5FA020CFB0EF34FEACE1E15
:102A20004FEA112C4FEAC1210EEB635E42EB2242CA
:102A30000EFB0CFC4FEA1C5300FB03114FEA112C58
:102A40004FEA01310EFB0CFC4FEADC4C00FB0C1191
:102A5000C14228BF09184CEB03335DF804EB10EBBF
:102A6000410143EBC250B2F57C0F38BF704729D506
:102A700012F0F00F1CBF00F1C04000F000407047A2
:102A8000008182838485868788898B8C8D8E8F9147
:102A90009293959697999A9C9D9FA0A2A3A5A7A86B
:102AA000AAACAEB0B2B3B5B7B9BCBEC0C2C5C7C997
:102AB000CCCED1D4D7D9DCDFE2E6E9ECF0F3F7FAFB
:102AC000FE0000004FEA400C0CF1807CBCF17E4F10
:102AD00028BF7047B0F1C04000F02BB990EA010F59
:102AE0000CEAD11348BF42F48072624538BF634597
:102AF00007D213F47F0F16D080EA010000F00040E7
:102B0000704710B500F0CFF8097EFC3E00F005B824
:102B100080EA010000F00040704780EA010000F008
:102B2000004000F006B912F47F0F04BF024870475E
:102B300080EA010000F0FDB80000C07FC10DD1F1B6
:102B40009E0206DB4FEA002343F0004323FA02F023
:102B50007047004207D54FEA4001B1F1FE4F02D263
:102B60004FF00000704710B500F09DF849922480A6
:102B7000002070476FEA200070470000B0FA80F331
:102B800010FA03F2C3F19D030AD0D90501EB12201C
:102B9000530638BF704700F1010008BF20F0010064
:102BA000704700004FF47F0C1CEAD0121EBF1CEAD5
:102BB000D11392EA0C0F93EA0C0F00F0478090EAD1
:102BC000010F48BF42F480724FF0004C4CEA0020E5
:102BD0004CEA012102EB0302A0FB0113A2F5000263
:102BE000002918BF43F001035B0028BF4FEA3303FD
:102BF00042EB22425FEA132C4CEBC2502EBFBCEBDF
:102C0000436FB2F57C0F70474FEA036CBCF1004F85
:102C100008BF20F00100B2F57C0F38BF70470BD51C
:102C200082F0FF0212F5803FC8BF704700F1C0403C
:102C3000D8BF00F00040704700F5000C5FEA4C0C74
:102C400048BF7047B0F1C04000F073B890EA010F80
:102C50000CEAD11348BF42F48072624538BF634525
:102C600004D280EA010000F00040704710B500F087
:102C70001AF800BF8900013E00F007B800F009B85B
:102C80005FEA410C5FEA1C6C08D080EA010000F0AA
:102C900050B85FEA400C5FEA1C6CF6D14FF0004080
:102CA000A0F5800070470EF1020E2EF0030E5EF8C4
:102CB000044B244204D44FEA4102B2F17F4F11D8B1
:102CC0004FEA4003B3F17F4F0CD80ED14FEAD07CCE
:102CD000B2F17F4F0CEB4C0C0CF1020C08BF4CEB2B
:102CE000D17C04E04FF0080C01E04FEAD17C0CEB02
:102CF0004C0324FA03F404F00704B4F1040C06D2E4
:102D00000EEB840CBDE810404CF0010C6047DFE88E
:102D10000CF0070802024FF00040A0F5800010BD43
:102D20000846420018BFD2F1807288BF00F0004010
:102D300010BDFF2141EAD050C005704790EA010F55
:102D400048BF81F000413FF5DCAD421A04D882F063
:102D50000042A0EB020011444FEAD0524FF07F4CEA
:102D60001CEA410FA2EBD15318BF9CEA026F4AD074
:102D70004FF0004C4CEA00204CEA012121FA03FC00
:102D8000B0EB0C0C0FD412F0FE0F36D05FEA4C0003
:102D90001DD5001240EBC25038BF70471CF03F0FEA
:102DA00018BF70470BE0A2F101025FEA1C2040EB64
:102DB000C25038BF70471CF07F0F18BF7047C3F177
:102DC0002003994014BF401E20F001007047800886
:102DD0004FEA122308BF7047B0FA80FCA2EB0C0246
:102DE000CCF1280C60FA0CF093EA122F04BF00EB30
:102DF000C25070474FEAC3707047130A5FEADC1095
:102E000008BF7047F6E79CEA026F04D010EA5C0F37
:102E100008BF0020704710B5FFF745FF40DFF63EC2
:102E200081F0004070470000482E0008000000209C
:102E3000440000008C0100088C2E00084400002093
:102E4000340F0000A801000800000000000000008E
:102E500000A24A0400000000000000000102030478
:102E60000607080900000000000000000000000044
:102E70000000000000000000000001020304010245
:0C2E80000304060708090204060800000D
:04000005080001519D
:00000001FF
